00:46:02.683601 IP (tos 0x0, ttl 63, id 41593, offset 0, flags [DF], proto ICMP (1), length 84)
    10.0.0.2 > 192.168.0.2: ICMP echo request, id 15341, seq 1, length 64
	0x0000:  4500 0054 a279 4000 3f01 ce83 0a00 0002
	0x0010:  c0a8 0002 0800 522a 3bed 0001 ba47 a15e
	0x0020:  0000 0000 456e 0a00 0000 0000 1011 1213
	0x0030:  1415 1617 1819 1a1b 1c1d 1e1f 2021 2223
	0x0040:  2425 2627 2829 2a2b 2c2d 2e2f 3031 3233
	0x0050:  3435 3637
00:46:02.683609 IP (tos 0x0, ttl 64, id 57378, offset 0, flags [none], proto ICMP (1), length 84)
    192.168.0.2 > 10.0.0.2: ICMP echo reply, id 15341, seq 1, length 64
	0x0000:  4500 0054 e022 0000 4001 cfda c0a8 0002
	0x0010:  0a00 0002 0000 5a2a 3bed 0001 ba47 a15e
	0x0020:  0000 0000 456e 0a00 0000 0000 1011 1213
	0x0030:  1415 1617 1819 1a1b 1c1d 1e1f 2021 2223
	0x0040:  2425 2627 2829 2a2b 2c2d 2e2f 3031 3233
	0x0050:  3435 3637
00:46:03.683979 IP (tos 0x0, ttl 63, id 41724, offset 0, flags [DF], proto ICMP (1), length 84)
    10.0.0.2 > 192.168.0.2: ICMP echo request, id 15341, seq 2, length 64
	0x0000:  4500 0054 a2fc 4000 3f01 ce00 0a00 0002
	0x0010:  c0a8 0002 0800 f227 3bed 0002 bb47 a15e
	0x0020:  0000 0000 a46f 0a00 0000 0000 1011 1213
	0x0030:  1415 1617 1819 1a1b 1c1d 1e1f 2021 2223
	0x0040:  2425 2627 2829 2a2b 2c2d 2e2f 3031 3233
	0x0050:  3435 3637
00:46:03.683997 IP (tos 0x0, ttl 64, id 57405, offset 0, flags [none], proto ICMP (1), length 84)
    192.168.0.2 > 10.0.0.2: ICMP echo reply, id 15341, seq 2, length 64
	0x0000:  4500 0054 e03d 0000 4001 cfbf c0a8 0002
	0x0010:  0a00 0002 0000 fa27 3bed 0002 bb47 a15e
	0x0020:  0000 0000 a46f 0a00 0000 0000 1011 1213
	0x0030:  1415 1617 1819 1a1b 1c1d 1e1f 2021 2223
	0x0040:  2425 2627 2829 2a2b 2c2d 2e2f 3031 3233
	0x0050:  3435 3637
00:46:04.684807 IP (tos 0x0, ttl 63, id 41825, offset 0, flags [DF], proto ICMP (1), length 84)
    10.0.0.2 > 192.168.0.2: ICMP echo request, id 15341, seq 3, length 64
	0x0000:  4500 0054 a361 4000 3f01 cd9b 0a00 0002
	0x0010:  c0a8 0002 0800 b323 3bed 0003 bc47 a15e
	0x0020:  0000 0000 e272 0a00 0000 0000 1011 1213
	0x0030:  1415 1617 1819 1a1b 1c1d 1e1f 2021 2223
	0x0040:  2425 2627 2829 2a2b 2c2d 2e2f 3031 3233
	0x0050:  3435 3637
00:46:04.684845 IP (tos 0x0, ttl 64, id 57617, offset 0, flags [none], proto ICMP (1), length 84)
    192.168.0.2 > 10.0.0.2: ICMP echo reply, id 15341, seq 3, length 64
	0x0000:  4500 0054 e111 0000 4001 ceeb c0a8 0002
	0x0010:  0a00 0002 0000 bb23 3bed 0003 bc47 a15e
	0x0020:  0000 0000 e272 0a00 0000 0000 1011 1213
	0x0030:  1415 1617 1819 1a1b 1c1d 1e1f 2021 2223
	0x0040:  2425 2627 2829 2a2b 2c2d 2e2f 3031 3233
	0x0050:  3435 3637
00:46:05.683795 IP (tos 0x0, ttl 63, id 41890, offset 0, flags [DF], proto ICMP (1), length 84)
    10.0.0.2 > 192.168.0.2: ICMP echo request, id 15341, seq 4, length 64
	0x0000:  4500 0054 a3a2 4000 3f01 cd5a 0a00 0002
	0x0010:  c0a8 0002 0800 9326 3bed 0004 bd47 a15e
	0x0020:  0000 0000 016f 0a00 0000 0000 1011 1213
	0x0030:  1415 1617 1819 1a1b 1c1d 1e1f 2021 2223
	0x0040:  2425 2627 2829 2a2b 2c2d 2e2f 3031 3233
	0x0050:  3435 3637
00:46:05.683804 IP (tos 0x0, ttl 64, id 57734, offset 0, flags [none], proto ICMP (1), length 84)
    192.168.0.2 > 10.0.0.2: ICMP echo reply, id 15341, seq 4, length 64
	0x0000:  4500 0054 e186 0000 4001 ce76 c0a8 0002
	0x0010:  0a00 0002 0000 9b26 3bed 0004 bd47 a15e
	0x0020:  0000 0000 016f 0a00 0000 0000 1011 1213
	0x0030:  1415 1617 1819 1a1b 1c1d 1e1f 2021 2223
	0x0040:  2425 2627 2829 2a2b 2c2d 2e2f 3031 3233
	0x0050:  3435 3637
00:46:06.684068 IP (tos 0x0, ttl 63, id 41937, offset 0, flags [DF], proto ICMP (1), length 84)
    10.0.0.2 > 192.168.0.2: ICMP echo request, id 15341, seq 5, length 64
	0x0000:  4500 0054 a3d1 4000 3f01 cd2b 0a00 0002
	0x0010:  c0a8 0002 0800 9524 3bed 0005 be47 a15e
	0x0020:  0000 0000 fe6f 0a00 0000 0000 1011 1213
	0x0030:  1415 1617 1819 1a1b 1c1d 1e1f 2021 2223
	0x0040:  2425 2627 2829 2a2b 2c2d 2e2f 3031 3233
	0x0050:  3435 3637
00:46:06.684086 IP (tos 0x0, ttl 64, id 57961, offset 0, flags [none], proto ICMP (1), length 84)
    192.168.0.2 > 10.0.0.2: ICMP echo reply, id 15341, seq 5, length 64
	0x0000:  4500 0054 e269 0000 4001 cd93 c0a8 0002
	0x0010:  0a00 0002 0000 9d24 3bed 0005 be47 a15e
	0x0020:  0000 0000 fe6f 0a00 0000 0000 1011 1213
	0x0030:  1415 1617 1819 1a1b 1c1d 1e1f 2021 2223
	0x0040:  2425 2627 2829 2a2b 2c2d 2e2f 3031 3233
	0x0050:  3435 3637
00:46:07.683749 IP (tos 0x0, ttl 63, id 42097, offset 0, flags [DF], proto ICMP (1), length 84)
    10.0.0.2 > 192.168.0.2: ICMP echo request, id 15341, seq 6, length 64
	0x0000:  4500 0054 a471 4000 3f01 cc8b 0a00 0002
	0x0010:  c0a8 0002 0800 c624 3bed 0006 bf47 a15e
	0x0020:  0000 0000 cc6e 0a00 0000 0000 1011 1213
	0x0030:  1415 1617 1819 1a1b 1c1d 1e1f 2021 2223
	0x0040:  2425 2627 2829 2a2b 2c2d 2e2f 3031 3233
	0x0050:  3435 3637
00:46:07.683760 IP (tos 0x0, ttl 64, id 58057, offset 0, flags [none], proto ICMP (1), length 84)
    192.168.0.2 > 10.0.0.2: ICMP echo reply, id 15341, seq 6, length 64
	0x0000:  4500 0054 e2c9 0000 4001 cd33 c0a8 0002
	0x0010:  0a00 0002 0000 ce24 3bed 0006 bf47 a15e
	0x0020:  0000 0000 cc6e 0a00 0000 0000 1011 1213
	0x0030:  1415 1617 1819 1a1b 1c1d 1e1f 2021 2223
	0x0040:  2425 2627 2829 2a2b 2c2d 2e2f 3031 3233
	0x0050:  3435 3637
00:46:07.728111 ARP, Ethernet (len 6), IPv4 (len 4), Request who-has 192.168.0.2 tell mininet-vm, length 28
	0x0000:  0001 0800 0604 0001 7a2d 4f21 641b c0a8
	0x0010:  0001 0000 0000 0000 c0a8 0002
00:46:07.728119 ARP, Ethernet (len 6), IPv4 (len 4), Request who-has 10.0.0.2 tell 192.168.0.2, length 28
	0x0000:  0001 0800 0604 0001 7267 d897 2331 c0a8
	0x0010:  0002 0000 0000 0000 0a00 0002
00:46:07.728218 ARP, Ethernet (len 6), IPv4 (len 4), Reply 10.0.0.2 is-at 7a:2d:4f:21:64:1b (oui Unknown), length 28
	0x0000:  0001 0800 0604 0002 7a2d 4f21 641b 0a00
	0x0010:  0002 7267 d897 2331 c0a8 0002
00:46:07.728213 ARP, Ethernet (len 6), IPv4 (len 4), Reply 192.168.0.2 is-at 72:67:d8:97:23:31 (oui Unknown), length 28
	0x0000:  0001 0800 0604 0002 7267 d897 2331 c0a8
	0x0010:  0002 7a2d 4f21 641b c0a8 0001
00:46:08.683847 IP (tos 0x0, ttl 63, id 42109, offset 0, flags [DF], proto ICMP (1), length 84)
    10.0.0.2 > 192.168.0.2: ICMP echo request, id 15341, seq 7, length 64
	0x0000:  4500 0054 a47d 4000 3f01 cc7f 0a00 0002
	0x0010:  c0a8 0002 0800 8523 3bed 0007 c047 a15e
	0x0020:  0000 0000 0c6f 0a00 0000 0000 1011 1213
	0x0030:  1415 1617 1819 1a1b 1c1d 1e1f 2021 2223
	0x0040:  2425 2627 2829 2a2b 2c2d 2e2f 3031 3233
	0x0050:  3435 3637
00:46:08.683860 IP (tos 0x0, ttl 64, id 58152, offset 0, flags [none], proto ICMP (1), length 84)
    192.168.0.2 > 10.0.0.2: ICMP echo reply, id 15341, seq 7, length 64
	0x0000:  4500 0054 e328 0000 4001 ccd4 c0a8 0002
	0x0010:  0a00 0002 0000 8d23 3bed 0007 c047 a15e
	0x0020:  0000 0000 0c6f 0a00 0000 0000 1011 1213
	0x0030:  1415 1617 1819 1a1b 1c1d 1e1f 2021 2223
	0x0040:  2425 2627 2829 2a2b 2c2d 2e2f 3031 3233
	0x0050:  3435 3637
00:46:09.684043 IP (tos 0x0, ttl 63, id 42112, offset 0, flags [DF], proto ICMP (1), length 84)
    10.0.0.2 > 192.168.0.2: ICMP echo request, id 15341, seq 8, length 64
	0x0000:  4500 0054 a480 4000 3f01 cc7c 0a00 0002
	0x0010:  c0a8 0002 0800 ae21 3bed 0008 c147 a15e
	0x0020:  0000 0000 e26f 0a00 0000 0000 1011 1213
	0x0030:  1415 1617 1819 1a1b 1c1d 1e1f 2021 2223
	0x0040:  2425 2627 2829 2a2b 2c2d 2e2f 3031 3233
	0x0050:  3435 3637
00:46:09.684060 IP (tos 0x0, ttl 64, id 58172, offset 0, flags [none], proto ICMP (1), length 84)
    192.168.0.2 > 10.0.0.2: ICMP echo reply, id 15341, seq 8, length 64
	0x0000:  4500 0054 e33c 0000 4001 ccc0 c0a8 0002
	0x0010:  0a00 0002 0000 b621 3bed 0008 c147 a15e
	0x0020:  0000 0000 e26f 0a00 0000 0000 1011 1213
	0x0030:  1415 1617 1819 1a1b 1c1d 1e1f 2021 2223
	0x0040:  2425 2627 2829 2a2b 2c2d 2e2f 3031 3233
	0x0050:  3435 3637
00:46:10.684562 IP (tos 0x0, ttl 63, id 42187, offset 0, flags [DF], proto ICMP (1), length 84)
    10.0.0.2 > 192.168.0.2: ICMP echo request, id 15341, seq 9, length 64
	0x0000:  4500 0054 a4cb 4000 3f01 cc31 0a00 0002
	0x0010:  c0a8 0002 0800 a21e 3bed 0009 c247 a15e
	0x0020:  0000 0000 ed71 0a00 0000 0000 1011 1213
	0x0030:  1415 1617 1819 1a1b 1c1d 1e1f 2021 2223
	0x0040:  2425 2627 2829 2a2b 2c2d 2e2f 3031 3233
	0x0050:  3435 3637
00:46:10.684581 IP (tos 0x0, ttl 64, id 58264, offset 0, flags [none], proto ICMP (1), length 84)
    192.168.0.2 > 10.0.0.2: ICMP echo reply, id 15341, seq 9, length 64
	0x0000:  4500 0054 e398 0000 4001 cc64 c0a8 0002
	0x0010:  0a00 0002 0000 aa1e 3bed 0009 c247 a15e
	0x0020:  0000 0000 ed71 0a00 0000 0000 1011 1213
	0x0030:  1415 1617 1819 1a1b 1c1d 1e1f 2021 2223
	0x0040:  2425 2627 2829 2a2b 2c2d 2e2f 3031 3233
	0x0050:  3435 3637
00:46:11.683965 IP (tos 0x0, ttl 63, id 42308, offset 0, flags [DF], proto ICMP (1), length 84)
    10.0.0.2 > 192.168.0.2: ICMP echo request, id 15341, seq 10, length 64
	0x0000:  4500 0054 a544 4000 3f01 cbb8 0a00 0002
	0x0010:  c0a8 0002 0800 f71f 3bed 000a c347 a15e
	0x0020:  0000 0000 976f 0a00 0000 0000 1011 1213
	0x0030:  1415 1617 1819 1a1b 1c1d 1e1f 2021 2223
	0x0040:  2425 2627 2829 2a2b 2c2d 2e2f 3031 3233
	0x0050:  3435 3637
00:46:11.683982 IP (tos 0x0, ttl 64, id 58458, offset 0, flags [none], proto ICMP (1), length 84)
    192.168.0.2 > 10.0.0.2: ICMP echo reply, id 15341, seq 10, length 64
	0x0000:  4500 0054 e45a 0000 4001 cba2 c0a8 0002
	0x0010:  0a00 0002 0000 ff1f 3bed 000a c347 a15e
	0x0020:  0000 0000 976f 0a00 0000 0000 1011 1213
	0x0030:  1415 1617 1819 1a1b 1c1d 1e1f 2021 2223
	0x0040:  2425 2627 2829 2a2b 2c2d 2e2f 3031 3233
	0x0050:  3435 3637
00:46:12.684057 IP (tos 0x0, ttl 63, id 42422, offset 0, flags [DF], proto ICMP (1), length 84)
    10.0.0.2 > 192.168.0.2: ICMP echo request, id 15341, seq 11, length 64
	0x0000:  4500 0054 a5b6 4000 3f01 cb46 0a00 0002
	0x0010:  c0a8 0002 0800 9c1e 3bed 000b c447 a15e
	0x0020:  0000 0000 f16f 0a00 0000 0000 1011 1213
	0x0030:  1415 1617 1819 1a1b 1c1d 1e1f 2021 2223
	0x0040:  2425 2627 2829 2a2b 2c2d 2e2f 3031 3233
	0x0050:  3435 3637
00:46:12.684074 IP (tos 0x0, ttl 64, id 58464, offset 0, flags [none], proto ICMP (1), length 84)
    192.168.0.2 > 10.0.0.2: ICMP echo reply, id 15341, seq 11, length 64
	0x0000:  4500 0054 e460 0000 4001 cb9c c0a8 0002
	0x0010:  0a00 0002 0000 a41e 3bed 000b c447 a15e
	0x0020:  0000 0000 f16f 0a00 0000 0000 1011 1213
	0x0030:  1415 1617 1819 1a1b 1c1d 1e1f 2021 2223
	0x0040:  2425 2627 2829 2a2b 2c2d 2e2f 3031 3233
	0x0050:  3435 3637
00:46:13.684039 IP (tos 0x0, ttl 63, id 42463, offset 0, flags [DF], proto ICMP (1), length 84)
    10.0.0.2 > 192.168.0.2: ICMP echo request, id 15341, seq 12, length 64
	0x0000:  4500 0054 a5df 4000 3f01 cb1d 0a00 0002
	0x0010:  c0a8 0002 0800 ad1d 3bed 000c c547 a15e
	0x0020:  0000 0000 df6f 0a00 0000 0000 1011 1213
	0x0030:  1415 1617 1819 1a1b 1c1d 1e1f 2021 2223
	0x0040:  2425 2627 2829 2a2b 2c2d 2e2f 3031 3233
	0x0050:  3435 3637
00:46:13.684056 IP (tos 0x0, ttl 64, id 58680, offset 0, flags [none], proto ICMP (1), length 84)
    192.168.0.2 > 10.0.0.2: ICMP echo reply, id 15341, seq 12, length 64
	0x0000:  4500 0054 e538 0000 4001 cac4 c0a8 0002
	0x0010:  0a00 0002 0000 b51d 3bed 000c c547 a15e
	0x0020:  0000 0000 df6f 0a00 0000 0000 1011 1213
	0x0030:  1415 1617 1819 1a1b 1c1d 1e1f 2021 2223
	0x0040:  2425 2627 2829 2a2b 2c2d 2e2f 3031 3233
	0x0050:  3435 3637
00:46:14.683771 IP (tos 0x0, ttl 63, id 42666, offset 0, flags [DF], proto ICMP (1), length 84)
    10.0.0.2 > 192.168.0.2: ICMP echo request, id 15341, seq 13, length 64
	0x0000:  4500 0054 a6aa 4000 3f01 ca52 0a00 0002
	0x0010:  c0a8 0002 0800 b91d 3bed 000d c647 a15e
	0x0020:  0000 0000 d26e 0a00 0000 0000 1011 1213
	0x0030:  1415 1617 1819 1a1b 1c1d 1e1f 2021 2223
	0x0040:  2425 2627 2829 2a2b 2c2d 2e2f 3031 3233
	0x0050:  3435 3637
00:46:14.683788 IP (tos 0x0, ttl 64, id 58707, offset 0, flags [none], proto ICMP (1), length 84)
    192.168.0.2 > 10.0.0.2: ICMP echo reply, id 15341, seq 13, length 64
	0x0000:  4500 0054 e553 0000 4001 caa9 c0a8 0002
	0x0010:  0a00 0002 0000 c11d 3bed 000d c647 a15e
	0x0020:  0000 0000 d26e 0a00 0000 0000 1011 1213
	0x0030:  1415 1617 1819 1a1b 1c1d 1e1f 2021 2223
	0x0040:  2425 2627 2829 2a2b 2c2d 2e2f 3031 3233
	0x0050:  3435 3637
00:46:15.683842 IP (tos 0x0, ttl 63, id 42863, offset 0, flags [DF], proto ICMP (1), length 84)
    10.0.0.2 > 192.168.0.2: ICMP echo request, id 15341, seq 14, length 64
	0x0000:  4500 0054 a76f 4000 3f01 c98d 0a00 0002
	0x0010:  c0a8 0002 0800 6f1c 3bed 000e c747 a15e
	0x0020:  0000 0000 1b6f 0a00 0000 0000 1011 1213
	0x0030:  1415 1617 1819 1a1b 1c1d 1e1f 2021 2223
	0x0040:  2425 2627 2829 2a2b 2c2d 2e2f 3031 3233
	0x0050:  3435 3637
00:46:15.683859 IP (tos 0x0, ttl 64, id 58776, offset 0, flags [none], proto ICMP (1), length 84)
    192.168.0.2 > 10.0.0.2: ICMP echo reply, id 15341, seq 14, length 64
	0x0000:  4500 0054 e598 0000 4001 ca64 c0a8 0002
	0x0010:  0a00 0002 0000 771c 3bed 000e c747 a15e
	0x0020:  0000 0000 1b6f 0a00 0000 0000 1011 1213
	0x0030:  1415 1617 1819 1a1b 1c1d 1e1f 2021 2223
	0x0040:  2425 2627 2829 2a2b 2c2d 2e2f 3031 3233
	0x0050:  3435 3637
00:46:16.683767 IP (tos 0x0, ttl 63, id 42917, offset 0, flags [DF], proto ICMP (1), length 84)
    10.0.0.2 > 192.168.0.2: ICMP echo request, id 15341, seq 15, length 64
	0x0000:  4500 0054 a7a5 4000 3f01 c957 0a00 0002
	0x0010:  c0a8 0002 0800 b81b 3bed 000f c847 a15e
	0x0020:  0000 0000 d16e 0a00 0000 0000 1011 1213
	0x0030:  1415 1617 1819 1a1b 1c1d 1e1f 2021 2223
	0x0040:  2425 2627 2829 2a2b 2c2d 2e2f 3031 3233
	0x0050:  3435 3637
00:46:16.683783 IP (tos 0x0, ttl 64, id 58861, offset 0, flags [none], proto ICMP (1), length 84)
    192.168.0.2 > 10.0.0.2: ICMP echo reply, id 15341, seq 15, length 64
	0x0000:  4500 0054 e5ed 0000 4001 ca0f c0a8 0002
	0x0010:  0a00 0002 0000 c01b 3bed 000f c847 a15e
	0x0020:  0000 0000 d16e 0a00 0000 0000 1011 1213
	0x0030:  1415 1617 1819 1a1b 1c1d 1e1f 2021 2223
	0x0040:  2425 2627 2829 2a2b 2c2d 2e2f 3031 3233
	0x0050:  3435 3637
